:100000000C9446000C945A000C9458000C948800F0
:100010000C9458000C9458000C9458000C94580000
:100020000C9458000C9458000C9458000C945800F0
:100030000C9458000C9458000C9458000C945800E0
:100040000C9458000C9458000C9458000C945800D0
:100050000C9458000C9458000C9458000C945800C0
:100060000C9458000C9458000C9458000C945800B0
:100070000C9458000C9458000C9458000C945800A0
:100080000C9458000C9458000C94580011241FBE76
:10009000CFEFD0E1DEBFCDBF21E0A0E0B1E001C0F5
:1000A0001D92A230B207E1F70E9494000C942A013D
:1000B0000C9400001F921FB61F9211248F939F93E0
:1000C000809B0BC082E280936A0080910001909136
:1000D0000101819B0BC005960AC083E280936A00F0
:1000E0008091000190910101819BF5CF059797FDCB
:1000F0000AC090930101809300019F918F911F90FE
:100100001FBE1F9018951092010110920001F5CFAB
:100110001F921FB61F92112410920101109200012C
:100120001F901FBE1F90189588E382B9789489B7F5
:10013000816089BF89B7846089BF83E280936A0048
:10014000C7E0CF93D1E0DF930E94CE001F9283E0FF
:100150008F931F921F921F92DF931F921F921F92E5
:100160008F931F9285E08F931F92CF9392E09F937E
:100170008F930E94F1008DB79EB742960FB6F89408
:100180009EBF0FBE8DBF83E00E94E8009093870062
:1001900083E00E94E80080938600F5CFCF93DF9341
:1001A000CDB7DEB7FE013596819116B841E050E03B
:1001B000815018F4DF91CF91089596B12191BA0141
:1001C00002C0660F771F2A95E2F7962B96B9F0CFFB
:1001D000806487B9369A349BFECF349A84B195B146
:1001E00008950F931F93CF93DF93CDB7DEB73F8171
:1001F000888510928B0010928A00932FDE01199649
:10020000FD0161E070E0915058F4E30FF11D41E011
:1002100050E0815090F4DF91CF911F910F9108959C
:1002200020918B004D918B0102C0000F111F4A9548
:10023000E2F7202B20938B00E6CF90918A0021914A
:10024000BA0102C0660F771F2A95E2F7962B9093AA
:080250008A00DFCFF894FFCF14
:00000001FF
