:100000000C9446000C945A000C9458000C948800F0
:100010000C9458000C9458000C9458000C94580000
:100020000C9458000C9458000C9458000C945800F0
:100030000C9458000C9458000C9458000C945800E0
:100040000C9458000C9458000C9458000C945800D0
:100050000C9458000C9458000C9458000C945800C0
:100060000C9458000C9458000C9458000C945800B0
:100070000C9458000C9458000C9458000C945800A0
:100080000C9458000C9458000C94580011241FBE76
:10009000CFEFD0E1DEBFCDBF21E0A0E0B1E001C0F5
:1000A0001D92A230B207E1F70E9494000C94540113
:1000B0000C9400001F921FB61F9211248F939F93E0
:1000C000809B0BC082E280936A0080910001909136
:1000D0000101819B0BC005960AC083E280936A00F0
:1000E0008091000190910101819BF5CF059797FDCB
:1000F0000AC090930101809300019F918F911F90FE
:100100001FBE1F9018951092010110920001F5CFAB
:100110001F921FB61F92112410920101109200012C
:100120001F901FBE1F90189588E382B989B7816020
:1001300089BF89B7846089BF83E280936A00C7E082
:10014000CF93D1E0DF930E94CE001F9283E08F9384
:100150001F921F921F92DF931F921F921F928F93E5
:100160001F9285E08F931F92CF9392E09F938F937E
:100170000E94F20078948DB79EB742960FB6F8941D
:100180009EBF0FBE8DBF83E00E94E9009093850063
:1001900083E00E94E90080938400F5CFCF93DF9342
:1001A000CDB7DEB7FE013596819116B821E030E07B
:1001B000815018F4DF91CF91089596B1A901008084
:1001C00002C0440F551F0A94E2F7942B96B9329659
:1001D000EFCF806487B9369A349BFECF349A84B1CE
:1001E00095B10895CF93DF93CDB7DEB78D812E8182
:1001F00010928B0010928A00982FDE011796FD0155
:1002000041E050E09150A0F590E0880F991FE80F71
:10021000F91F41E050E02150C8F580918B0093E038
:100220009093830088EC809382002FEF3FEB46E0B1
:10023000215030404040E1F700C0000010928300A0
:100240001092820020918A00909385008093840010
:100250008FEF9FED20E1815090402040E1F700C0FA
:1002600000001092850010928400DF91CF910895D4
:1002700030918B00BA010C9002C0660F771F0A9470
:10028000E2F7362B30938B001296BCCF80918A0018
:10029000BA01008002C0660F771F0A94E2F7862B2E
:0C02A00080938A003296B7CFF894FFCF0D
:00000001FF
