:100000000C9446000C945A000C9458000C949100E7
:100010000C9458000C9458000C9458000C94580000
:100020000C9458000C9458000C9458000C945800F0
:100030000C9458000C9458000C9458000C945800E0
:100040000C9458000C9458000C9458000C945800D0
:100050000C9458000C9458000C9458000C945800C0
:100060000C9458000C9458000C9458000C945800B0
:100070000C9458000C9458000C9458000C945800A0
:100080000C9458000C9458000C94580011241FBE76
:10009000CFEFD0E1DEBFCDBF21E0A0E0B1E001C0F5
:1000A0001D92A230B207E1F70E949D000C94460118
:1000B0000C9400001F921FB61F9211242F938F9350
:1000C0009F93809B0BC082E280936A008091000125
:1000D00090910101819B0BC0C2960AC083E280937C
:1000E0006A008091000190910101819BF5CFC29738
:1000F00097FF0BC010920101109200019F918F9108
:100100002F911F901FBE1F901895813B24E09207EE
:100110002CF49093010180930001F0CF80EB94E0E8
:10012000F8CF1F921FB61F92112410920101109256
:1001300000011F901FBE1F90189589B7816089BF6D
:1001400089B7846089BF83E280936A00D7E0DF9338
:10015000C1E0CF930E94EF0087B3806687BB1F92F8
:1001600083E08F931F9294E09F931F92CF931F92EF
:10017000DF931F9295E09F931F92CF938F938F935E
:100180000E94120180E09CE697BD86BD789488E7C6
:1001900095E099BD88BD9BBD8ABD2FEF8FEB91E2A5
:1001A000215080409040E1F700C000008DB79EB71D
:1001B00040960FB6F8949EBF0FBE8DBF8091000190
:1001C0009091010188589A4F9BBD8ABD83E00E949F
:1001D0000A0190E088589A4F99BD88BDEFCFCF9320
:1001E000DF93CDB7DEB7FE013596819116B821E0D9
:1001F00030E0815018F4DF91CF91089596B1A901B4
:10020000008002C0440F551F0A94E2F7942B96B960
:100210003296EFCF806687B9369A349BFECF349AF8
:1002200085B10895CF93DF93CDB7DEB78D812E8151
:100230001FBC1EBC982FDE011796FD0141E050E067
:10024000915060F490E0880F991FE80FF91F41E08A
:1002500050E0215078F4DF91CF9108953FB5BA0175
:100260000C9002C0660F771F0A94E2F7362B3FBD51
:100270001296E6CF8EB5BA01008002C0660F771FD6
:100280000A94E2F7862B8EBD3296E3CFF894FFCF27
:00000001FF
