:100000000C9446000C9467000C9465000C949500C9
:100010000C9465000C9465000C9465000C946500CC
:100020000C9465000C9465000C9465000C946500BC
:100030000C9465000C9465000C9465000C946500AC
:100040000C9465000C9465000C9465000C9465009C
:100050000C9465000C9465000C9465000C9465008C
:100060000C9465000C9465000C9465000C9465007C
:100070000C9465000C9465000C9465000C9465006C
:100080000C9465000C9465000C94650011241FBE4F
:10009000CFEFD0E1DEBFCDBF11E0A0E0B1E0E2E5FF
:1000A000F2E000E00BBF02C007900D92A030B10754
:1000B000D9F721E0A0E0B1E001C01D92A230B20763
:1000C000E1F70E94A1000C9427010C9400001F92FC
:1000D0001FB61F9211248F939F93809B0BC082E2C7
:1000E00080936A008091000190910101819B0BC077
:1000F00005960AC083E280936A0080910001909186
:100100000101819BF5CF059797FD0AC090930101EE
:10011000809300019F918F911F901FBE1F90189593
:100120001092010110920001F5CF1F921FB61F928D
:10013000112410920101109200011F901FBE1F9008
:10014000189588E382B9789489B7816089BF89B7A7
:10015000846089BF83E280936A00C7E0CF93D1E0D7
:10016000DF930E94D4001F92DF931F921F921F9271
:1001700083E08F931F9285E08F93CF938F930E949C
:10018000F7008DB79EB70C960FB6F8949EBF0FBEC2
:100190008DBF83E00E94EE009093870083E00E9471
:1001A000EE0080938600F5CFCF93DF93CDB7DEB717
:1001B000FE013596819116B841E050E0815018F467
:1001C000DF91CF91089596B12191BA0102C0660FD7
:1001D000771F2A95E2F7962B96B9F0CF806487B9FE
:1001E000369A349BFECF349A84B195B10895CF935B
:1001F000DF93CDB7DEB7FE013596819110928B006B
:1002000010928A0041E050E08150A0F489E0809390
:100210008A0080918B0093E09093830088EC809318
:10022000820020918A009093850080938400DF9162
:10023000CF91089590918B002191BA0102C0660F71
:10024000771F2A95E2F7962B90938B00DDCFF894D9
:02025000FFCFDE
:00000001FF
