:100000000C9446000C94B2000C9465000C94E6002D
:100010000C9465000C9465000C9465000C946500CC
:100020000C9465000C9465000C9465000C946500BC
:100030000C9465000C9465000C9465000C946500AC
:100040000C9465000C9465000C9465000C9465009C
:100050000C9465000C9465000C9465000C9465008C
:100060000C9465000C9465000C9465000C9465007C
:100070000C9465000C9465000C9465000C9465006C
:100080000C9465000C9465000C94650011241FBE4F
:10009000CFEFD0E1DEBFCDBF11E0A0E0B1E0EAE8F4
:1000A000F4E000E00BBF02C007900D92A831B10749
:1000B000D9F721E0A8E1B1E001C01D92AC31B2074F
:1000C000E1F70E94B6010C9443020C9400009FEFEC
:1000D00094BB91B3906C91BB979885BB969A82E143
:1000E0008A95F1F700C096988FEF9BE60197F1F79C
:1000F00000C0000008958FEF84BB81B3806C81BB8A
:100100002FEF8FE593E0215080409040E1F700C051
:10011000000080E30E94670080E30E94670080E3A4
:100120000E94670088E30E9467008CE00E946700DD
:1001300086E00E94670081E00C9467009FEF94BB0B
:1001400091B3906C91BB979A85BB969A82E18A9500
:10015000F1F700C096988CEC9AE00197F1F700C097
:10016000000008951F921FB61F9211248F939F9332
:10017000809B19C082E280936A00819B19C085E050
:1001800090911B019130B1F09230D1F0911105C0E6
:1001900090911A01890F80931A019F918F911F905E
:1001A0001FBE1F90189583E280936A00819BE7CF62
:1001B0008BEFE6CF90911901890F80931901EDCF54
:1001C00090911801890F80931801E7CF0F920FB615
:1001D0000F921F9211245F936F937F938F939F933E
:1001E000AF93BF9380911B0190E0019663E070E0B4
:1001F0000E941B0280931B01BF91AF919F918F9131
:100200007F916F915F911F900F900FBE0F90189587
:100210000F931F93CF93DF93CDB7DEB72A970FB617
:10022000F894DEBF0FBECDBF8AE0E0E0F1E0DE0172
:10023000119601900D928A95E1F782E80E9467007D
:1002400080911A0104E6602F0E940F02E1E0F0E0C5
:10025000EC0FFD1FE80FF11D80810E949E00809130
:100260001A011AE0612F0E940F020E940F02E1E0C2
:10027000F0E0EC0FFD1FE90FF11D80810E949E0050
:1002800080911A01612F0E940F02E1E0F0E0EC0F73
:10029000FD1FE90FF11D80810E949E0087E80E94EA
:1002A000670080911901602F0E940F02E1E0F0E0E9
:1002B000EC0FFD1FE80FF11D80810E949E008091D0
:1002C0001901612F0E940F020E940F02E1E0F0E08D
:1002D000EC0FFD1FE90FF11D80810E949E008091AF
:1002E0001901612F0E940F02E1E0F0E0EC0FFD1F09
:1002F000E90FF11D80810E949E008CE80E9467003A
:1003000080911801602F0E940F02E1E0F0E0EC0FF5
:10031000FD1FE80FF11D80810E949E008091180151
:10032000612F0E940F020E940F02E1E0F0E0EC0F4B
:10033000FD1FE90FF11D80810E949E008091180130
:10034000612F0E940F02E1E0F0E0EC0FFD1FE90FCA
:10035000F11D80812A960FB6F894DEBF0FBECDBF87
:10036000DF91CF911F910F910C949E00CDB7DEB716
:100370002C970FB6F894DEBF0FBECDBF78940E94C5
:100380007B0089B7816089BF89B7846089BF83E2B8
:1003900080936A0088E382B989EA80938B008AE0BF
:1003A00080938A001092870080E8809386008CE01A
:1003B000EBE0F1E0DE01119601900D928A95E1F7F4
:1003C00080E80E9467008E010F5F1F4F7E018DE065
:1003D000E80EF11CF80181918F010E949E000E151C
:1003E0001F05C1F70E9408018091180190E09093C9
:1003F0008700809386008091190190E0909385009A
:100400008093840080911A0190E090938300809300
:10041000820084E191E00197F1F70000E3CF991B9E
:1004200079E004C0991F961708F0961B881F7A95EB
:10043000C9F78095089597FB072E16F4009407D00E
:1004400077FD09D00E942F0207FC05D03EF490955D
:1004500081959F4F0895709561957F4F0895AA1BD0
:10046000BB1B51E107C0AA1FBB1FA617B70710F09F
:10047000A61BB70B881F991F5A95A9F780959095D1
:0A048000BC01CD010895F894FFCFF0
:10048A003031323334353637383900523A20202069
:08049A00473A202020423A00FD
:00000001FF
