:100000000C9434000C9449000C9449000C94490061
:100010000C9449000C9449000C9449000C9449003C
:100020000C9449000C9449000C9449000C9449002C
:100030000C9449000C9449000C9449000C9449001C
:100040000C9449000C9449000C9449000C9449000C
:100050000C9449000C9449000C9449000C944900FC
:100060000C9449000C94490011241FBECFEFD8E036
:10007000DEBFCDBF11E0A0E0B1E0EEE1F1E002C0F3
:1000800005900D92A830B107D9F70E9484000C9416
:100090008D000C94000084EA8093BC008091BC0029
:1000A00087FFFCCF08958093BB0084E88093BC0059
:1000B0008091BC0087FFFCCF08950F931F93CF93CF
:1000C000DF93D62FC72F0E944B0080EC0E94530075
:1000D0000D2F1C2FC0E0CF5F8C2F0E945300F80122
:1000E00081918F010E945300C830A9F78CE00E94D3
:1000F00053008FEF0E94530084E98093BC00DF918E
:10010000CF911F910F91089580E28093B80060E035
:0E01100071E080E60E945D00FFCFF894FFCF03
:08011E002424FF2424FF242403
:00000001FF
