:100000000C9446000C945D000C945D000C945D0013
:100010000C945D000C945D000C945D000C945D00EC
:100020000C945D000C945D000C945D000C945D00DC
:100030000C945D000C945D000C945D000C945D00CC
:100040000C945D000C945D000C945D000C945D00BC
:100050000C945D000C945D000C945D000C945D00AC
:100060000C945D000C945D000C945D000C945D009C
:100070000C945D000C945D000C945D000C945D008C
:100080000C945D000C945D000C945D0011241FBE67
:10009000CFEFD0E1DEBFCDBF11E0A0E0B1E0E0ECFA
:1000A000F2E000E00BBF02C007900D92A231B10751
:1000B000D9F70E94B3000C945E010C9400009FEFEE
:1000C00094BB91B3906C91BB979885BB969A82E153
:1000D0008A95F1F700C096988FEF9BE60197F1F7AC
:1000E00000C0000008958FEF84BB81B3806C81BB9A
:1000F0002FEF8FE593E0215080409040E1F700C062
:10010000000080E30E945F0080E30E945F0080E3C4
:100110000E945F0088E30E945F008CE00E945F0005
:1001200086E00E945F0081E00C945F009FEF94BB2B
:1001300091B3906C91BB979A85BB969A82E18A9510
:10014000F1F700C096988CEC9AE00197F1F700C0A7
:1001500000000895806487B9369A349BFECF349AA4
:1001600084B195B10895CDB7DEB72F970FB6F89447
:10017000DEBF0FBECDBF0E94730085E0E0E0F1E07E
:10018000DE011B9601900D928A95E1F780E80E94AE
:100190005F008E01055F1F4F7E0180E1E80EF11CBC
:1001A000F80181918F010E9496000E151F05C1F77D
:1001B00088E382B98BEA80938B0089E080938A0080
:1001C00080E886B98AE0E6E0F1E0DE011196019070
:1001D0000D928A95E1F788EEA82E83E0B82E94E67A
:1001E000C92ED12C2AE0E22EF12C83E00E94AA0035
:1001F0009093870083E00E94AA008093860083E0AA
:100200000E94AA009093850083E00E94AA00809338
:10021000840083E00E94AA008C0185E80E945F00B0
:10022000C801B5010E944A01E1E0F0E0EC0FFD1FBA
:10023000E60FF71F80810E949600C801B6010E9458
:100240004A01CB01B7010E944A01E1E0F0E0EC0F66
:10025000FD1FE80FF91F80810E949600C801B701B9
:100260000E944A018C01CB01B7010E944A01E1E0E2
:10027000F0E0EC0FFD1FE80FF91F80810E9496004F
:10028000E1E0F0E0EC0FFD1FE00FF11F80810E9424
:100290009600ABCFAA1BBB1B51E107C0AA1FBB1F17
:1002A000A617B70710F0A61BB70B881F991F5A9502
:1002B000A9F780959095BC01CD010895F894FFCFE2
:1002C0004144433A200030313233343536373839FF
:0202D00000002C
:00000001FF
