:100000000C9446000C9450000C9450000C9450003A
:100010000C9450000C9450000C9450000C94500020
:100020000C9450000C9450000C9450000C94500010
:100030000C9450000C9450000C9450000C94500000
:100040000C9450000C9450000C9450000C945000F0
:100050000C9450000C9450000C9450000C945000E0
:100060000C9450000C9450000C9450000C945000D0
:100070000C9450000C9450000C9450000C945000C0
:100080000C9450000C9450000C94500011241FBE8E
:10009000CFEFD0E1DEBFCDBF0E945B000C947000BB
:1000A0000C940000806487B9369A349BFECF349A52
:1000B00084B195B1089588E382B98BEA80938B006F
:1000C00089E080938A0080E886B983E00E9452002C
:1000D0009093870083E00E94520080938600F5CFC2
:0400E000F894FFCFC2
:00000001FF
