:100000000C9446000C9465000C9465000C946500FB
:100010000C9465000C9465000C9465000C946500CC
:100020000C9467000C9465000C9465000C946500BA
:100030000C9465000C9465000C9465000C946500AC
:100040000C9465000C9465000C9465000C9465009C
:100050000C9465000C9465000C9465000C9465008C
:100060000C9465000C9465000C9465000C9465007C
:100070000C9465000C9465000C9465000C9465006C
:100080000C9465000C9465000C94650011241FBE4F
:10009000CFEFD0E1DEBFCDBF11E0A0E0B1E0E2E6FE
:1000A000F4E000E00BBF02C007900D92AC30B10746
:1000B000D9F721E0ACE0B1E001C01D92A031B20758
:1000C000E1F70E94A4000C942F020C9400000F9200
:1000D0000FB60F921F9211242F933F934F935F936C
:1000E0006F937F938F939F93AF93BF930F9B11C099
:1000F0001DBC1CBCBF91AF919F918F917F916F915F
:100100005F914F913F912F911F900F900FBE0F90D5
:1001100018952CB530E030930F0120930E018DB56A
:10012000382B30930F0120930E0148E2429FC0010B
:10013000439F900D112464E670E00E941B027093AF
:100140000D0160930C01D6CF89B7806889BF8AB74B
:1001500080648ABF1F92C2E0CF931F92D3E0DF93E7
:100160001F921F921F9211E01F93CF93CF930E9473
:10017000E7011F92DF931F921F921F921F931F92FE
:100180001F921F92CF931F9286E08F931F9284E05D
:100190008F931F92DF931F9285E08F931F9287E0CA
:1001A0008F93CF9388E08F930E94AD0188E382B94B
:1001B000169A78948FEF93E0909385008093840053
:1001C0002BE933E0309387002093860090938300DF
:1001D000809382002FEF3FE14AE0215030404040C1
:1001E000E1F700C000009093850080938400909315
:1001F00087008093860090938300809382008DB760
:100200009EB780960FB6F8949EBF0FBE8DBF0BE9C8
:1002100013E0CFEFD3E01E9A9CE59A95F1F700002A
:100220001E982FEF3FE14AE0215030404040E1F777
:1002300000C0000080910C0190910D010E945701B7
:1002400080910C0190910D018F30910568F4D0934D
:100250008500C0938400D0938700C09386001093DC
:10026000830000938200D7CF109385000093840011
:10027000499788F3D0938700C0938600D09383007A
:10028000C0938200C8CF40E050E021E030E090E031
:100290006AE04817590710F0C9010895F9016E9FE7
:1002A00090016F9F300D11244F5F5F4FF2CF9F92EF
:1002B000AF92BF92CF92DF92EF92FF920F931F9374
:1002C000CF93DF93D82EC92E8FEF8ABB84BBEE2449
:1002D000E394F12CBB24B39495E0A92E0AE010E03E
:1002E000C1E0D0E08A2D8E190E944301BC018D2D02
:1002F0009C2D0E941B02CB01B8010E941B02E82F1B
:10030000811129C0BB2019F085E0E812EAE0F0E095
:10031000E050FF4F808185BBCE010E2C01C0880FBD
:100320000A94EAF78BBB8BE08A95F1F700001BBAC1
:100330008FEFE81AF80A86E0E816F10499F6DF91E3
:10034000CF911F910F91FF90EF90DF90CF90BF90D2
:10035000AF909F900895B12CDACFCF93DF93CDB7B4
:10036000DEB78D812E8110928B0010928A00982F1B
:10037000DE011796FD0141E050E0915060F490E0FD
:10038000880F991FE80FF91F41E050E0215088F4D1
:10039000DF91CF91089530918B00BA010C9002C08B
:1003A000660F771F0A94E2F7362B30938B00129674
:1003B000E4CF80918A00BA01008002C0660F771FE7
:1003C0000A94E2F7862B80938A003296DFCFCF9390
:1003D000DF93CDB7DEB78D812E811FBC1EBC982F59
:1003E000DE011796FD0141E050E0915060F490E08D
:1003F000880F991FE80FF91F41E050E0215078F471
:10040000DF91CF9108953FB5BA010C9002C0660FFD
:10041000771F0A94E2F7362B3FBD1296E6CF8EB5D2
:10042000BA01008002C0660F771F0A94E2F7862B9C
:100430008EBD3296E3CFAA1BBB1B51E107C0AA1F9A
:10044000BB1FA617B70710F0A61BB70B881F991F75
:100450005A95A9F780959095BC01CD010895F8941F
:02046000FFCFCC
:0C0462003F065B4F666D7D077F6F00005A
:00000001FF
