:100000000C9446000C9465000C9465000C946500FB
:100010000C9465000C9465000C9465000C946500CC
:100020000C9467000C9465000C9465000C946500BA
:100030000C9465000C9465000C9465000C946500AC
:100040000C9465000C9465000C9465000C9465009C
:100050000C9465000C9465000C9465000C9465008C
:100060000C9465000C9465000C9465000C9465007C
:100070000C9465000C9465000C9465000C9465006C
:100080000C9465000C9465000C94650011241FBE4F
:10009000CFEFD0E1DEBFCDBF11E0A0E0B1E0EAE9F3
:1000A000F3E000E00BBF02C007900D92AC30B10747
:1000B000D9F721E0ACE0B1E001C01D92A031B20758
:1000C000E1F70E9486000C94CB010C9400001F9273
:1000D0001FB61F9211242F938F939F930F9B09C0DC
:1000E0001DBC1CBC9F918F912F911F901FBE1F9014
:1000F00018958CB590E090930F0180930E012DB56B
:10010000922B90930F0180930E01ECCF80E889BF72
:1001100080E48ABF1F9282E08F931F9293E09F93A7
:100120001F921F921F9291E09F938F938F930E9433
:10013000830188E382B9169A78948FEF93E09093C5
:100140008500809384002BE933E03093870020936F
:10015000860090938300809382002FEF3FE14AE076
:10016000215030404040E1F700C0000090938500EE
:1001700080938400909387008093860090938300FF
:10018000809382008DB79EB70A960FB6F8949EBFF3
:100190000FBE8DBF88E2F82E94E6C92ED12C0BE954
:1001A00013E0CFEFD3E01E9A9CE59A95F1F700009B
:1001B0001E982FEF3FEB46E0215030404040E1F7E2
:1001C00000C0000020910E0130910F01F29EC0018D
:1001D000F39E900D1124B6010E94B701CB017093DC
:1001E0000D0160930C010E942C0180910C019091F3
:1001F0000D018F30910568F4D0938500C093840081
:10020000D0938700C09386001093830000938200F0
:10021000CACF1093850000938400499788F3D09348
:100220008700C0938600D0938300C0938200BBCF29
:1002300040E050E021E030E090E06AE048175907E4
:1002400010F0C9010895F9016E9F90016F9F300D64
:1002500011244F5F5F4FF2CF9F92AF92BF92CF9228
:10026000DF92EF92FF920F931F93CF93DF93D82EDD
:10027000C92E8EE38ABB8FEF84BBEE24E394F12C6E
:10028000BB24B39495E0A92E0AE010E0C1E0D0E0D1
:100290008A2D8E190E941801BC018D2D9C2D0E9463
:1002A000B701CB01B8010E94B701E82F811129C025
:1002B000BB2019F085E0E812EAE0F0E0E050FF4FE3
:1002C000808185BBCE010E2C01C0880F0A94EAF70D
:1002D0008BBB87E38A95F1F700001BBA8FEFE81A12
:1002E000F80A86E0E816F10499F6DF91CF911F91A4
:1002F0000F91FF90EF90DF90CF90BF90AF909F90C5
:100300000895B12CDACFCF93DF93CDB7DEB78D81CF
:100310002E811FBC1EBC982FDE011796FD0141E007
:1003200050E0915060F490E0880F991FE80FF91F9A
:1003300041E050E0215078F4DF91CF9108953FB52E
:10034000BA010C9002C0660F771F0A94E2F7362BB1
:100350003FBD1296E6CF8EB5BA01008002C0660F8F
:10036000771F0A94E2F7862B8EBD3296E3CFAA1B45
:10037000BB1B51E107C0AA1FBB1FA617B70710F090
:10038000A61BB70B881F991F5A95A9F780959095C2
:0A039000BC01CD010895F894FFCFE1
:0C039A003F065B4F666D7D077F6F000023
:00000001FF
