:100000000C9446000C9458000C9458000C94580022
:100010000C9458000C9458000C9458000C94580000
:100020000C9458000C9458000C9458000C945800F0
:100030000C9458000C9458000C9458000C945800E0
:100040000C9458000C9458000C9458000C945800D0
:100050000C9458000C9458000C9458000C945800C0
:100060000C9458000C9458000C9458000C945800B0
:100070000C9458000C9458000C9458000C945800A0
:100080000C9458000C9458000C94580011241FBE76
:10009000CFEFD0E1DEBFCDBF21E0A0E0B1E001C0F5
:1000A0001D92A030B207E1F70E9491000C94A500C8
:1000B0000C9400009FEF94BB91B3906C91BB979808
:1000C00085BB969A82E18A95F1F700C096988FEFEA
:1000D0009BE60197F1F700C0000008958FEF84BB05
:1000E00081B3806C81BB2FEF8FE593E0215080407E
:1000F0009040E1F700C0000080E30E945A0080E3D6
:100100000E945A0080E30E945A0088E30E945A002D
:100110008CE00E945A0086E00E945A0081E00C9414
:100120005A0080E287BBC8E0C09364000E946E0062
:1001300086E886B981E88FBD89E08EBDC0936500F1
:0E0140008FEF90E09BBD8ABDFFCFF894FFCFFC
:00000001FF
