:100000000C9446000C9458000C9458000C94580022
:100010000C9458000C9458000C9458000C94580000
:100020000C9458000C9458000C9458000C945800F0
:100030000C9458000C9458000C9458000C945800E0
:100040000C9458000C9458000C9458000C945800D0
:100050000C9458000C9458000C9458000C945800C0
:100060000C9458000C9458000C9458000C945800B0
:100070000C9458000C9458000C9458000C945800A0
:100080000C9458000C9458000C94580011241FBE76
:10009000CFEFD0E1DEBFCDBF21E0A0E0B1E001C0F5
:1000A0001D92A130B207E1F70E94C9000C9411041F
:1000B0000C940000806687B985E28A95F1F7369A3C
:1000C000349BFECF349A84B18093000185B10895AA
:1000D000462F6AE070E0433071F02AE030E0B90169
:1000E0000E942402CB01B9010E942402423009F48B
:1000F0000895CB01B9010E94240208959FEF94BB9B
:1001000091B3906C91BB979885BB969A82E18A9542
:10011000F1F700C096988FEF9BE60197F1F700C0CA
:10012000000008958FEF84BB81B3806C81BB2FEFFB
:100130008FE593E0215080409040E1F700C000003F
:1001400080E30E947E0080E30E947E0080E30E94A4
:100150007E0088E30E947E008CE00E947E0086E0A4
:100160000E947E0081E00C947E009FEF94BB91B3CF
:10017000906C91BB979A85BB969A82E18A95F1F72C
:1001800000C096988CEC9AE00197F1F700C000004F
:100190000895CDB7DEB728970FB6F894DEBF0FBE2F
:1001A000CDBF80E287BB88E0809364000E9492000C
:1001B00086E886B983E88FBD89E08EBD612C712CFD
:1001C00083E0C82ED12C90E5A92EB12C83E00E94AB
:1001D0005A0083E00E945A0083E00E945A0081E0A6
:1001E0000E945A00898381E00E945A002981280FC9
:1001F0003327331F3A83298381E00E945A004981C3
:100200005A81480F511D5E834D83CA01B6010E9479
:1002100038027B018501061B170BC801012E000C5B
:10022000AA0BBB0B89839A83AB83BC83BC01CD0132
:100230000E94EF022AE939E949E251E469837A83AD
:100240008B839C8369817A818B819C810E94A4032A
:1002500020E030E0A90169837A838B839C836981E4
:100260007A818B819C810E944D024B012C01C80137
:10027000861997099C01990F440B550B29833A83E2
:100280004B835C83CA01B9010E94EF0223E333E38D
:1002900043EF5FE369837A838B839C8369817A81EF
:1002A0008B819C810E94A4039B01AC0189829A826C
:1002B0004B825C8269817A818B819C810E944D0294
:1002C000462F572FBC0149835A836B837C8320E0E0
:1002D00030EC4FE754E469817A818B819C810E94E4
:1002E0009F0318160CF460C020E030EC4FE754EC8C
:1002F00069817A818B819C810E94B90287FD80C0CF
:10030000AD81BE81AC32B1400CF460C0809165001B
:100310008860809365001BBC1ABC31E03D836D8111
:10032000C7010E946800805D0E94B5004D814F5F4B
:100330004D834430A1F780E20E94B50051E05D8317
:100340006D8180E590E00E946800805D0E94B500AC
:100350008D818F5F8D83843099F780E20E94B50094
:1003600091E09D8369817A818B819C810E94BE028C
:10037000262F6D81822F972F0E946800805D0E943A
:10038000B500AD81AF5FAD83A43061F7BFEF2FEA59
:1003900031E0B15020403040E1F700C0000081E082
:1003A0000E947E00380112CF80E090ECAFE7B4E409
:1003B00089839A83AB83BC83A3CF80E090ECAFE7C3
:1003C000B4EC89839A83AB83BC83A0CF69817A81A3
:1003D0008B819C810E94BE022B0120E030E0A901AC
:1003E00069817A818B819C810E949F0387FD15C062
:1003F00080916500877F809365005BBC4ABC8DCF90
:100400004D815E814C325140C4F620E030EC4FE724
:1004100054EC29833A834B835C8380916500886028
:100420008093650029813A814B815C8150582D83EE
:100430003E834F835887CA01B9010E94BE02462FEE
:10044000572F5BBD4ABD69CFAA1BBB1B51E107C03B
:10045000AA1FBB1FA617B70710F0A61BB70B881F54
:10046000991F5A95A9F780959095BC01CD010895E3
:1004700097FB072E16F4009407D077FD09D00E9451
:10048000240207FC05D03EF4909581959F4F089576
:10049000709561957F4F08955058BB27AA270E94F9
:1004A00064020C9465030E94570338F00E945E03B7
:1004B00020F039F49F3F19F426F40C9454030EF401
:1004C000E095E7FB0C944E03E92F0E94760358F366
:1004D000BA17620773078407950720F079F4A6F529
:1004E0000C9498030EF4E0950B2EBA2FA02D0B015F
:1004F000B90190010C01CA01A0011124FF27591B69
:1005000099F0593F50F4503E68F11A16F040A22F6E
:10051000232F342F4427585FF3CF469537952795DF
:10052000A795F0405395C9F77EF41F16BA0B620BDE
:10053000730B840BBAF09150A1F0FF0FBB1F661F25
:10054000771F881FC2F70EC0BA0F621F731F841F68
:1005500048F4879577956795B795F7959E3F08F08E
:10056000B0CF9395880F08F09927EE0F9795879550
:1005700008950E942A0308F481E008950E947E03F2
:1005800088F09F5798F0B92F9927B751B0F0E1F054
:10059000660F771F881F991F1AF0BA95C9F714C004
:1005A000B13091F00E949803B1E008950C94980343
:1005B000672F782F8827B85F39F0B93FCCF386953D
:1005C00077956795B395D9F73EF49095809570959A
:1005D00061957F4F8F4F9F4F0895E89409C097FB17
:1005E0003EF490958095709561957F4F8F4F9F4F0A
:1005F0009923A9F0F92F96E9BB279395F69587954E
:1006000077956795B795F111F8CFFAF4BB0F11F410
:1006100060FF1BC06F5F7F4F8F4F9F4F16C08823B7
:1006200011F096E911C0772321F09EE8872F762FED
:1006300005C0662371F096E8862F70E060E02AF02E
:100640009A95660F771F881FDAF7880F969587951A
:1006500097F90895990F0008550FAA0BE0E8FEEFEF
:1006600016161706E807F907C0F012161306E40776
:10067000F50798F0621B730B840B950B39F40A266F
:1006800061F0232B242B252B21F408950A2609F44D
:10069000A140A6958FEF811D811D089597F99F6751
:1006A00080E870E060E008959FEF80EC08950024FA
:1006B0000A941616170618060906089500240A94C7
:1006C00012161306140605060895092E0394000C4D
:1006D00011F4882352F0BB0F40F4BF2B11F460FFDC
:1006E00004C06F5F7F4F8F4F9F4F089557FD905805
:1006F000440F551F59F05F3F71F04795880F97FBE6
:10070000991F61F09F3F79F087950895121613069F
:100710001406551FF2CF4695F1DF08C016161706CE
:100720001806991FF1CF8695710561050894089503
:10073000E894BB2766277727CB0197F908950E9495
:100740002A0308F48FEF08950E94B7030C94650301
:100750000E94570338F00E945E0320F0952311F0A9
:100760000C944E030C94540311240C9499030E948E
:10077000760370F3959FC1F3950F50E0551F629F6C
:10078000F001729FBB27F00DB11D639FAA27F00DEA
:10079000B11DAA1F649F6627B00DA11D661F829F11
:1007A0002227B00DA11D621F739FB00DA11D621FF6
:1007B000839FA00D611D221F749F3327A00D611D13
:1007C000231F849F600D211D822F762F6A2F1124F5
:1007D0009F5750409AF0F1F088234AF0EE0FFF1F28
:1007E000BB1F661F771F881F91505040A9F79E3F7F
:1007F000510580F00C944E030C9499035F3FE4F391
:10080000983ED4F3869577956795B795F795E795D4
:100810009F5FC1F7FE2B880F911D9695879597F9DD
:060820000895F894FFCFDB
:00000001FF
