:100000000C9446000C945D000C945D000C945D0013
:100010000C945D000C945D000C945D000C945D00EC
:100020000C945D000C945D000C945D000C945D00DC
:100030000C945D000C945D000C945D000C945D00CC
:100040000C945D000C945D000C945D000C945D00BC
:100050000C945D000C945D000C945D000C945D00AC
:100060000C945D000C945D000C945D000C945D009C
:100070000C945D000C945D000C945D000C945D008C
:100080000C945D000C945D000C945D0011241FBE67
:10009000CFEFD0E1DEBFCDBF11E0A0E0B1E0E0EAFC
:1000A000F4E000E00BBF02C007900D92AC30B10746
:1000B000D9F70E94C8010C944E020C9400009FEFE7
:1000C00094BB91B3906C91BB979885BB969A82E153
:1000D0008A95F1F700C096988FEF9BE60197F1F7AC
:1000E00000C0000008958FEF84BB81B3806C81BB9A
:1000F0002FEF8FE593E0215080409040E1F700C062
:10010000000080E30E945F0080E30E945F0080E3C4
:100110000E945F0088E30E945F008CE00E945F0005
:1001200086E00E945F0081E00C945F009FEF94BB2B
:1001300091B3906C91BB979A85BB969A82E18A9510
:10014000F1F700C096988CEC9AE00197F1F700C0A7
:10015000000008956F927F928F929F92AF92BF920C
:10016000CF92DF92EF92FF920F931F93CF93DF9383
:10017000CDB7DEB72A970FB6F894DEBF0FBECDBF5E
:100180006C013B018A018AE0E0E0F1E0DE011196BA
:1001900001900D928A95E1F781E80E945F0038EEA8
:1001A000832E33E0932EC601B4010E942602E1E0C3
:1001B000F0E0EC0FFD1FE60FF71F80810E94960014
:1001C00044E6A42EB12CC601B5010E942602CB0143
:1001D0005AE0E52EF12CB7010E942602E1E0F0E0A2
:1001E000EC0FFD1FE80FF91F80810E949600C601E9
:1001F000B7010E9426026C01CB01B7010E942602C2
:10020000E1E0F0E0EC0FFD1FE80FF91F80810E9494
:100210009600E1E0F0E0EC0FFD1FEC0DFD1D80818C
:100220000E94960087E80E945F00C301B4010E940B
:100230002602E1E0F0E0EC0FFD1FE60FF71F8081E2
:100240000E949600C301B5010E942602CB01B701AE
:100250000E942602E1E0F0E0EC0FFD1FE80FF91F1D
:1002600080810E949600C301B7010E9426026C01A2
:10027000CB01B7010E942602E1E0F0E0EC0FFD1F88
:10028000E80FF91F80810E949600E1E0F0E0EC0F9A
:10029000FD1FEC0DFD1D80810E94960083EC0E94E5
:1002A0005F0017FF06C08DE20E9496001195019530
:1002B0001109C80160E177E20E943A02E1E0F0E052
:1002C000EC0FFD1FE60FF71F80810E949600C8010A
:1002D00068EE73E00E943A02CB012AE0E22EF12C94
:1002E000B7010E943A02E1E0F0E0EC0FFD1FE80FD9
:1002F000F91F80810E949600C80164E670E00E94A8
:100300003A02CB01B7010E943A02E1E0F0E0EC0FC3
:10031000FD1FE80FF91F80810E949600C801B701F8
:100320000E943A028C01CB01B7010E943A02E1E03F
:10033000F0E0EC0FFD1FE80FF91F80810E9496008E
:10034000E1E0F0E0EC0FFD1FE00FF11F80812A9645
:100350000FB6F894DEBF0FBECDBFDF91CF911F91D6
:100360000F91FF90EF90DF90CF90BF90AF909F9054
:100370008F907F906F900C949600806687B985E28D
:100380008A95F1F7369A349BFECF349A85B1089559
:100390000E94730080E287BB88E08093640087E856
:1003A00086B983E88FBD89E08EBD83E0882E912CCD
:1003B00092E3C92ED12CAA24AA9423E0B22E34E8C9
:1003C000632E33E0732E81E00E94BD01C82F81E0CF
:1003D0000E94BD01C80FDD27DD1F81E00E94BD0125
:1003E000C80FD11DCE01B4010E943A027B0183E007
:1003F0000E94BD0183E00E94BD0183E00E94BD0117
:1004000086010E191F09A80162E370E0C7010E946E
:10041000AA00CF32D1403CF0809165008860809383
:100420006500BBBCAABC809165001016110664F47F
:10043000877F809365007BBC6ABC8FEF9BE601974A
:10044000F1F700C00000BFCF8860F3CFAA1BBB1B31
:1004500051E107C0AA1FBB1FA617B70710F0A61BC4
:10046000B70B881F991F5A95A9F780959095BC01E5
:10047000CD01089597FB072E16F4009407D077FD61
:1004800009D00E94260207FC05D03EF49095819584
:100490009F4F0895709561957F4F0895F894FFCF11
:0C04A00030313233343536373839000043
:00000001FF
