:100000000C9446000C945D000C945D000C945D0013
:100010000C945D000C945D000C945D000C945D00EC
:100020000C945D000C945D000C945D000C945D00DC
:100030000C945D000C945D000C945D000C945D00CC
:100040000C945D000C945D000C945D000C945D00BC
:100050000C945D000C945D000C945D000C945D00AC
:100060000C945D000C945D000C945D000C945D009C
:100070000C945D000C945D000C945D000C945D008C
:100080000C945D000C945D000C945D0011241FBE67
:10009000CFEFD0E1DEBFCDBF11E0A0E0B1E0E8E6F8
:1000A000F7E000E00BBF02C007900D92A030B1074F
:1000B000D9F70E94A1000C94B2030C9400009FEFAA
:1000C00094BB91B3906C91BB979885BB969A82E153
:1000D0008A95F1F700C096988FEF9BE60197F1F7AC
:1000E00000C0000008958FEF84BB81B3806C81BB9A
:1000F0002FEF8FE593E0215080409040E1F700C062
:10010000000080E30E945F0080E30E945F0080E3C4
:100110000E945F0088E30E945F008CE00E945F0005
:1001200086E00E945F0081E00C945F00806687B9E2
:1001300085E28A95F1F7369A349BFECF349A85B1E1
:10014000089500D000D000D0CDB7DEB70E94730074
:1001500080E287BB88E08093640087E886B983E803
:100160008FBD89E08EBD98E392B99BEA90938B0096
:1001700080938A0080916500877F809365001E824E
:100180001D8233E0E32EF12C48E2C42ED12C04E68C
:1001900010E081E00E949600A82E81E00E94960067
:1001A000A80EBB24BB1C81E00E949600982E83E021
:1001B0000E94960083E00E94960083E00E949600D1
:1001C000C501890D911DB7010E94D201C601861B90
:1001D000970BAD81BE81A80FB91FBE83AD83092ED9
:1001E000000CAA0BBB0B89839A83AB83BC83BC0135
:1001F000CD010E9490022B015C018D819E81092E10
:10020000000CAA0BBB0B89839A83AB83BC83BC0114
:10021000CD010E9490022FE632E143E05BE3698367
:100220007A838B839C8369817A818B819C810E94F4
:1002300045033B014C0120E030E048E551E44982B0
:100240005A82AB82BC8269817A818B819C810E94B7
:1002500045039B01AC0169827A828B829C82698111
:100260007A818B819C810E94E7013B014C012FE840
:1002700032EC45E75CE349825A82AB82BC826981F9
:100280007A818B819C810E9445039B01AC0169822C
:100290007A828B829C8269817A818B819C810E9487
:1002A000E7014B015C01AD81BE81B7FF48C01093EF
:1002B00083000093820020E030E0A90189829A82C5
:1002C000AB82BC8269817A818B819C810E944003D0
:1002D00087FD3AC0109285001092840020E030E043
:1002E00040E054E489829A82AB82BC8269817A813F
:1002F0008B819C810E94400387FF3DC020E030E05D
:1003000040E054E469817A818B819C810E94E701FD
:1003100069837A838B839C8369817A818B819C81B9
:100320000E945802CB019BBD8ABD23E0959587951D
:100330002A95E1F790938700809386002ACF109248
:10034000830010928200B7CF109385000093840041
:1003500020E030E040E054EC89829A82AB82BC829B
:1003600069817A818B819C810E945302181634F234
:1003700080E090E0D8CF8FEF93E0D5CFAA1BBB1BD6
:1003800051E107C0AA1FBB1FA617B70710F0A61B95
:10039000B70B881F991F5A95A9F780959095BC01B6
:1003A000CD01089597FB072E16F4009407D077FD32
:1003B00009D00E94BE0107FC05D03EF490958195BE
:1003C0009F4F0895709561957F4F08955058BB27B2
:1003D000AA270E94FE010C9406030E94F80238F03E
:1003E0000E94FF0220F039F49F3F19F426F40C9488
:1003F000F5020EF4E095E7FB0C94EF02E92F0E9462
:10040000170358F3BA17620773078407950720F09C
:1004100079F4A6F50C9439030EF4E0950B2EBA2F5F
:10042000A02D0B01B90190010C01CA01A0011124FA
:10043000FF27591B99F0593F50F4503E68F11A16A6
:10044000F040A22F232F342F4427585FF3CF469537
:1004500037952795A795F0405395C9F77EF41F1659
:10046000BA0B620B730B840BBAF09150A1F0FF0F23
:10047000BB1F661F771F881FC2F70EC0BA0F621F0F
:10048000731F841F48F4879577956795B795F795FF
:100490009E3F08F0B0CF9395880F08F09927EE0F94
:1004A0009795879508950E94CB0208F481E00895FE
:1004B0000E945F026894B1110C943A0308950E945F
:1004C0001F0388F09F5798F0B92F9927B751B0F0C4
:1004D000E1F0660F771F881F991F1AF0BA95C9F7C8
:1004E00014C0B13091F00E943903B1E008950C942A
:1004F0003903672F782F8827B85F39F0B93FCCF3DD
:10050000869577956795B395D9F73EF49095809544
:10051000709561957F4F8F4F9F4F0895E89409C064
:1005200097FB3EF490958095709561957F4F8F4F26
:100530009F4F9923A9F0F92F96E9BB279395F6953C
:10054000879577956795B795F111F8CFFAF4BB0FBA
:1005500011F460FF1BC06F5F7F4F8F4F9F4F16C01E
:10056000882311F096E911C0772321F09EE8872FA8
:10057000762F05C0662371F096E8862F70E060E064
:100580002AF09A95660F771F881FDAF7880F9695DD
:10059000879597F90895990F0008550FAA0BE0E881
:1005A000FEEF16161706E807F907C0F01216130635
:1005B000E407F50798F0621B730B840B950B39F475
:1005C0000A2661F0232B242B252B21F408950A26DB
:1005D00009F4A140A6958FEF811D811D089597F91B
:1005E0009F6780E870E060E008959FEF80EC0895D9
:1005F00000240A9416161706180609060895002402
:100600000A9412161306140605060895092E03947B
:10061000000C11F4882352F0BB0F40F4BF2B11F4EF
:1006200060FF04C06F5F7F4F8F4F9F4F089557FD4E
:100630009058440F551F59F05F3F71F04795880F50
:1006400097FB991F61F09F3F79F0879508951216E7
:1006500013061406551FF2CF4695F1DF08C0161693
:1006600017061806991FF1CF869571056105089444
:100670000895E894BB2766277727CB0197F908955B
:100680000E94CB0208F48FEF08950E9458030C9447
:1006900006030E94F80238F00E94FF0220F0952322
:1006A00011F00C94EF020C94F50211240C943A030F
:1006B0000E94170370F3959FC1F3950F50E0551FEB
:1006C000629FF001729FBB27F00DB11D639FAA27A7
:1006D000F00DB11DAA1F649F6627B00DA11D661FF6
:1006E000829F2227B00DA11D621F739FB00DA11D17
:1006F000621F839FA00D611D221F749F3327A00DD1
:10070000611D231F849F600D211D822F762F6A2F6C
:1007100011249F5750409AF0F1F088234AF0EE0FD1
:10072000FF1FBB1F661F771F881F91505040A9F7FE
:100730009E3F510580F00C94EF020C943A035F3F0A
:10074000E4F3983ED4F3869577956795B795F7953A
:10075000E7959F5FC1F7FE2B880F911D96958795B2
:0807600097F90895F894FFCF0A
:00000001FF
