:100000000C9446000C945D000C945D000C945D0013
:100010000C945D000C945D000C945D000C945D00EC
:100020000C945D000C945D000C945D000C945D00DC
:100030000C945D000C945D000C945D000C945D00CC
:100040000C945D000C945D000C945D000C945D00BC
:100050000C945D000C945D000C945D000C945D00AC
:100060000C945D000C945D000C945D000C945D009C
:100070000C945D000C945D000C945D000C945D008C
:100080000C945D000C945D000C945D0011241FBE67
:10009000CFEFD0E1DEBFCDBF11E0A0E0B1E0E4E7FB
:1000A000F5E000E00BBF02C007900D92AC30B10745
:1000B000D9F70E941E020C94B8020C9400009FEF26
:1000C00094BB91B3906C91BB979885BB969A82E153
:1000D0008A95F1F700C096988FEF9BE60197F1F7AC
:1000E00000C0000008958FEF84BB81B3806C81BB9A
:1000F0002FEF8FE593E0215080409040E1F700C062
:10010000000080E30E945F0080E30E945F0080E3C4
:100110000E945F0088E30E945F008CE00E945F0005
:1001200086E00E945F0081E00C945F009FEF94BB2B
:1001300091B3906C91BB979A85BB969A82E18A9510
:10014000F1F700C096988CEC9AE00197F1F700C0A7
:10015000000008954F925F926F927F928F929F92CC
:10016000AF92BF92CF92DF92EF92FF920F931F93C5
:10017000CF93DF93CDB7DEB72A970FB6F894DEBFE3
:100180000FBECDBF3C012B017A0189018AE0E0E07E
:10019000F1E0DE01119601900D928A95E1F780E879
:1001A0000E945F0048EE842E43E0942EC301B40108
:1001B0000E949002E1E0F0E0EC0FFD1FE60FF71F58
:1001C00080810E94960054E6A52EB12CC301B50192
:1001D0000E949002CB016AE0C62ED12CB6010E948B
:1001E0009002E1E0F0E0EC0FFD1FE80FF91F8081C5
:1001F0000E949600C301B6010E9490023C01CB010F
:10020000B6010E949002E1E0F0E0EC0FFD1FE80F64
:10021000F91F80810E949600E1E0F0E0EC0FFD1FE5
:10022000E60DF71D80810E94960085E80E945F0020
:10023000C201B4010E949002E1E0F0E0EC0FFD1F6A
:10024000E60FF71F80810E949600C201B5010E944F
:100250009002CB01B6010E949002E1E0F0E0EC0FC9
:10026000FD1FE80FF91F80810E949600C201B601B0
:100270000E9490025C01CB01B6010E949002E1E075
:10028000F0E0EC0FFD1FE80FF91F80810E9496003F
:10029000E1E0F0E0EC0FFD1FEA0DFB1D80810E9404
:1002A00096008AE80E945F00F7FEB5C08DE20E94CA
:1002B0009600F194E194F108C70168EE73E00E94A2
:1002C000A402E1E0F0E0EC0FFD1FE60FF71F8081D4
:1002D0000E949600C70164E670E00E94A402CB0170
:1002E0003AE0C32ED12CB6010E94A402E1E0F0E076
:1002F000EC0FFD1FE80FF91F80810E949600C701D7
:10030000B6010E94A4027C01CB01B6010E94A402A6
:10031000E1E0F0E0EC0FFD1FE80FF91F80810E9483
:100320009600E1E0F0E0EC0FFD1FEE0DFF1D808177
:100330000E94960080EC0E945F0017FF70C08DE263
:100340000E949600119501951109C80160E177E2BC
:100350000E94A402E1E0F0E0EC0FFD1FE60FF71FA2
:1003600080810E949600C80168EE73E00E94A4029A
:10037000CB012AE0E22EF12CB7010E94A402E1E0B9
:10038000F0E0EC0FFD1FE80FF91F80810E9496003E
:10039000C80164E670E00E94A402CB01B7010E948C
:1003A000A402E1E0F0E0EC0FFD1FE80FF91F8081EF
:1003B0000E949600C801B7010E94A4028C01CB01E3
:1003C000B7010E94A402E1E0F0E0EC0FFD1FE80F8E
:1003D000F91F80810E949600E1E0F0E0EC0FFD1F24
:1003E000E00FF11F80812A960FB6F894DEBF0FBE92
:1003F000CDBFDF91CF911F910F91FF90EF90DF90D4
:10040000CF90BF90AF909F908F907F906F905F90B4
:100410004F900C94960080E20E9496004DCF80E2AF
:100420000E94960092CF806687B985E28A95F1F79F
:10043000369A349BFECF349A85B108950E9473009A
:1004400080E287BB88E08093640087E886B983E810
:100450008FBD89E08EBD83E0682E712C96E4A92EB5
:10046000B12C2EE9822E27E0922E34E6432E512C19
:1004700081E00E941302C82F81E00E941302C80F7E
:10048000DD27DD1F81E00E9413028C0F9D2F911D3F
:10049000B3010E94A4026B0183E00E941302C82FE3
:1004A00083E00E941302C80FDD27DD1F83E00E9456
:1004B0001302282FF501EC19FD09E89D7001E99D53
:1004C000F00CF89DF00C1124C701B2010E94A402A7
:1004D0008B01CE01820F911DB3010E94A4029801ED
:1004E000AF01C6010E94AA008DE9E8168FEFF80659
:1004F00074F080916500877F809365001BBD0ABD05
:100500008FEF9BE60197F1F700C00000B1CF80911B
:100510006500886080936500119501951109EECF03
:10052000AA1BBB1B51E107C0AA1FBB1FA617B70719
:1005300010F0A61BB70B881F991F5A95A9F7809535
:100540009095BC01CD01089597FB072E16F40094F9
:1005500007D077FD09D00E94900207FC05D03EF439
:10056000909581959F4F0895709561957F4F08955F
:04057000F894FFCF2D
:0C0574003031323334353637383900006E
:00000001FF
