:100000000C9446000C945D000C945D000C945D0013
:100010000C945D000C945D000C945D000C945D00EC
:100020000C945D000C945D000C945D000C945D00DC
:100030000C945D000C945D000C945D000C945D00CC
:100040000C945D000C945D000C945D000C945D00BC
:100050000C945D000C945D000C945D000C945D00AC
:100060000C945D000C945D000C945D000C945D009C
:100070000C945D000C945D000C945D000C945D008C
:100080000C945D000C945D000C945D0011241FBE67
:10009000CFEFD0E1DEBFCDBF11E0A0E0B1E0E8ECF2
:1000A000F7E000E00BBF02C007900D92A030B1074F
:1000B000D9F70E946A000C94E2030C940000806659
:1000C00087B985E28A95F1F7369A349BFECF349A48
:1000D00085B1089500D000D000D00F92CDB7DEB723
:1000E00080E287BB88E08093640087E886B981E876
:1000F0008FBD89E08EBD98E392B999EA90938B0009
:1001000080938A0080916500877F80936500F12C41
:10011000E12CD12CC12C1D82812C912CA12C86E4A8
:10012000282E99E1692E712C81E00E945F0089835D
:1001300081E00E945F002981280F3327331F3A8313
:10014000298381E00E945F00A981BA81A80FB11DB7
:10015000CD0163E070E00E94EE01CB01770FAA0BA6
:10016000BB0B89839A83AB83BC83BC01CD010E9406
:10017000C002562EB72E8C0183E00E945F00898357
:1001800083E00E945F00A981A80FBB27BB1FBA8331
:10019000A98383E00E945F0029813A81280F311DE5
:1001A000C90163E070E00E94EE01269EC001279E17
:1001B000900D11246FEF70E00E94EE01625E7F4FA0
:1001C000CB01770FAA0BBB0B89839A83AB83BC83CC
:1001D000BC01CD010E94C002252D3B2DA8016983E1
:1001E0007A838B839C8369817A818B819C810E9435
:1001F00016028B018F839E8320E030E0A901982FA7
:100200008E8169831A839B838C8369817A818B8138
:100210009C810E94700318160CF0A7C07092830096
:100220006092820010928500109284009F818E81DE
:10023000202F312F492F582FF982EA82DB82CC827E
:1002400069817A818B819C810E941702F62EE72EAC
:10025000D82EC92E20E030E048E251E49F818E8103
:1002600009831A839B838C8369817A818B819C812A
:100270000E947503362E472E582EB92E2FE632E1F6
:1002800043E859E3F982EA82DB82CC8269817A8190
:100290008B819C810E9475039B01AC0139824A824B
:1002A0005B82BC8269817A818B819C810E9417026A
:1002B000362E472E582EB92E7D81272F382D492DC9
:1002C0005A2D9F818E8109831A839B838C83698138
:1002D0007A818B819C810E94160220E030E04FE2FF
:1002E00054E469837A838B839C8369817A818B81CF
:1002F0009C810E9475039B01AC0139824A825B821A
:10030000BC8269817A818B819C810E9417024B019A
:100310005C0120E030E0A90169839A828B83BC8272
:1003200069817A818B819C810E94700387FD26C040
:1003300080916500877F8093650020E030E04FE783
:1003400053E489829A82AB82BC8269817A818B81F3
:100350009C810E94700387FF3EC069817A818B81F6
:100360009C810E948802CB0126C070928500609219
:100370008400109283001092820058CF8091650013
:1003800088608093650020E030E04AE753EC898282
:100390009A82AB82BC8269817A818B819C810E9426
:1003A000830218167CF0A2E3B0E0B0938700A0931C
:1003B000860086E09FEF9BBD8ABD0D83812E9F80C6
:1003C000AE80B2CE109287001092860089829A8207
:1003D000AB82BC82C2CF8FEF90E0EDCF97FB072EB0
:1003E00016F4009407D077FD09D00E94020207FCA2
:1003F00005D03EF4909581959F4F08957095619535
:100400007F4F0895AA1BBB1B51E107C0AA1FBB1F4A
:10041000A617B70710F0A61BB70B881F991F5A9590
:10042000A9F780959095BC01CD0108955058BB2740
:10043000AA270E942E020C9436030E94280338F04B
:100440000E942F0320F039F49F3F19F426F40C94F6
:1004500025030EF4E095E7FB0C941F03E92F0E949F
:10046000470358F3BA17620773078407950720F00C
:1004700079F4A6F50C9469030EF4E0950B2EBA2FCF
:10048000A02D0B01B90190010C01CA01A00111249A
:10049000FF27591B99F0593F50F4503E68F11A1646
:1004A000F040A22F232F342F4427585FF3CF4695D7
:1004B00037952795A795F0405395C9F77EF41F16F9
:1004C000BA0B620B730B840BBAF09150A1F0FF0FC3
:1004D000BB1F661F771F881FC2F70EC0BA0F621FAF
:1004E000731F841F48F4879577956795B795F7959F
:1004F0009E3F08F0B0CF9395880F08F09927EE0F34
:100500009795879508950E94FB0208F481E008956D
:100510000E948F026894B1110C946A0308950E949E
:100520004F0388F09F5798F0B92F9927B751B0F033
:10053000E1F0660F771F881F991F1AF0BA95C9F767
:1005400014C0B13091F00E946903B1E008950C9499
:100550006903672F782F8827B85F39F0B93FCCF34C
:10056000869577956795B395D9F73EF490958095E4
:10057000709561957F4F8F4F9F4F0895E89409C004
:1005800097FB3EF490958095709561957F4F8F4FC6
:100590009F4F9923A9F0F92F96E9BB279395F695DC
:1005A000879577956795B795F111F8CFFAF4BB0F5A
:1005B00011F460FF1BC06F5F7F4F8F4F9F4F16C0BE
:1005C000882311F096E911C0772321F09EE8872F48
:1005D000762F05C0662371F096E8862F70E060E004
:1005E0002AF09A95660F771F881FDAF7880F96957D
:1005F000879597F90895990F0008550FAA0BE0E821
:10060000FEEF16161706E807F907C0F012161306D4
:10061000E407F50798F0621B730B840B950B39F414
:100620000A2661F0232B242B252B21F408950A267A
:1006300009F4A140A6958FEF811D811D089597F9BA
:100640009F6780E870E060E008959FEF80EC089578
:1006500000240A94161617061806090608950024A1
:100660000A9412161306140605060895092E03941B
:10067000000C11F4882352F0BB0F40F4BF2B11F48F
:1006800060FF04C06F5F7F4F8F4F9F4F089557FDEE
:100690009058440F551F59F05F3F71F04795880FF0
:1006A00097FB991F61F09F3F79F087950895121687
:1006B00013061406551FF2CF4695F1DF08C0161633
:1006C00017061806991FF1CF8695710561050894E4
:1006D0000895E894BB2766277727CB0197F90895FB
:1006E0000E94FB0208F48FEF08950E9488030C9487
:1006F00036030E94280338F00E942F0320F0952330
:1007000011F00C941F030C94250311240C946A031C
:100710000E94470370F3959FC1F3950F50E0551F5A
:10072000629FF001729FBB27F00DB11D639FAA2746
:10073000F00DB11DAA1F649F6627B00DA11D661F95
:10074000829F2227B00DA11D621F739FB00DA11DB6
:10075000621F839FA00D611D221F749F3327A00D70
:10076000611D231F849F600D211D822F762F6A2F0C
:1007700011249F5750409AF0F1F088234AF0EE0F71
:10078000FF1FBB1F661F771F881F91505040A9F79E
:100790009E3F510580F00C941F030C946A035F3F49
:1007A000E4F3983ED4F3869577956795B795F795DA
:1007B000E7959F5FC1F7FE2B880F911D9695879552
:0807C00097F90895F894FFCFAA
:00000001FF
