:100000000C9434000C9453000C9451000C94510047
:100010000C9451000C9451000C9451000C9451001C
:100020000C9451000C9451000C9451000C9451000C
:100030000C9451000C9451000C9451000C945100FC
:100040000C9451000C9451000C9451000C945100EC
:100050000C9451000C9451000C9451000C945100DC
:100060000C9451000C94510011241FBECFEFD8E026
:10007000DEBFCDBF11E0A0E0B1E0EEE4F2E002C0EF
:1000800005900D92AE30B107D9F721E0AEE0B1E0B6
:1000900001C01D92A031B207E1F70E9402010C9449
:1000A00025010C9400008F938FB78F939F938091BD
:1000B0000E0190910F01099790930F0180930E010B
:1000C0009F918F918FBF8F91189584B18C6284B965
:1000D00083E58CBD089540E050E021E030E090E001
:1000E0006AE04817590710F0C9010895F9016E9F99
:1000F00090016F9F300D11244F5F5F4FF2CFAF9291
:10010000BF92DF92EF92FF920F931F93CF93DF93F3
:10011000CDB7DEB72C970FB6F894DEBF0FBECDBFBC
:100120008C018CE0E0E0F1E0DE01119601900D928F
:100130008A95E1F7662309F45AC017FF52C08FE78A
:100140008EBD0DB407FEFDCF119501951109083E36
:1001500083E0180710F007EE13E023E0E22EFF24FF
:10016000F394DD24D3948AE0A82EB12C8E2D8F1920
:100170000E946B00BC01C8010E941101CB01B501B6
:100180000E94110181113CC0DD2011F0EF108AE0C6
:10019000E1E0F0E0EC0FFD1FE80FF11D80818EBD66
:1001A0000DB407FEFDCFF394EF1400F72A988AE60A
:1001B0008A95F1F700C02A9A8AE68A95F1F700C07D
:1001C0002A982C960FB6F894DEBF0FBECDBFDF91F4
:1001D000CF911F910F91FF90EF90DF90BF90AF9064
:1001E00008958FEF8EBD0DB407FEFDCFB0CF003167
:1001F00087E2180714F00FE017E294E0E92EAFCF82
:10020000D12CC6CF0E94650081E0809369008DBB30
:10021000789461E080910E0190910F010E947F001F
:10022000F8CFAA1BBB1B51E107C0AA1FBB1FA61713
:10023000B70710F0A61BB70B881F991F5A95A9F78F
:0E02400080959095BC01CD010895F894FFCFF4
:0E024E0081F34961332505F10121FF7F000096
:00000001FF
