:100000000C9446000C9450000C9450000C9450003A
:100010000C9450000C9450000C9450000C94500020
:100020000C9450000C9450000C9450000C94500010
:100030000C9450000C9450000C9450000C94500000
:100040000C9450000C9450000C9450000C945000F0
:100050000C9450000C9450000C9450000C945000E0
:100060000C9450000C9450000C9450000C945000D0
:100070000C9450000C9450000C9450000C945000C0
:100080000C9450000C9450000C94500011241FBE8E
:10009000CFEFD0E1DEBFCDBF0E9452000C949000A4
:1000A0000C94000088E382B98BEA80938B0089E08E
:1000B00080938A0087E08F9381E08F930E946D0088
:1000C0000F900F9083E00E9487009093870083E059
:1000D0000E94870080938600F5CFCF93DF93CDB742
:1000E000DEB7FE013596819116B841E050E08150AF
:1000F00018F4DF91CF91089596B12191BA0102C011
:10010000660F771F2A95E2F7962B96B9F0CF806499
:1001100087B9369A349BFECF349A84B195B108954D
:04012000F894FFCF81
:00000001FF
